:1020000000800020A14B0000894B0000894B00009C
:1020100000000000000000000000000000000000C0
:10202000000000000000000000000000894B0000DC
:102030000000000000000000894B0000F54B00008C
:10204000894B0000894B0000894B0000894B000040
:10205000894B0000894B0000894B00008D4B00002C
:10206000894B0000894B0000894B0000894B000020
:10207000894B0000894B0000892B0000894B000030
:10208000894B0000894B0000894B0000894B000000
:1020900000000000894B0000894B0000894B0000C4
:1020A000894B0000894B0000894B0000894B0000E0
:1020B0000000000010B5064C2378002B07D1054B1B
:1020C000002B02D0044800E000BF0123237010BDA4
:1020D000200200200000000050960000044B10B5C4
:1020E000002B03D00349044800E000BF10BDC046E8
:1020F00000000000240200205096000070B5082562
:1021000000240F2002F06CFF013D2418002DF8D1AF
:102110000723E01718400019C01070BD10B5FF2844
:102120000DDDFF200302084C02041A430243002184
:10213000200000F0EBFC200000F0B8FB10BDC34312
:10214000DB171840EEE7C0466002002070B50020A3
:10215000FFF7E4FFC82002F091FD64250024FFF79B
:10216000CDFF013D2418052002F088FD002DF6D199
:102170006421200003F064F904005020FFF7CEFF33
:10218000B42002F07BFD2826FFF7B8FF013E2D1892
:10219000042002F073FD002EF6D13000FFF7BEFFE1
:1021A0002821280003F04CF90122844200DB023A86
:1021B0000C4B1A600C4B1C60782353430B4A1B19C1
:1021C00093420ADD13000A4A2000136004F042F92A
:1021D000084B1860084B186070BD0A2BF3DA0A230D
:1021E000F1E7C0461400002010000020F2030000B8
:1021F00018000020500200204C02002037B5254C6A
:102200002549200002F0ABFA244B0425186805F09C
:10221000CFFE009502000B00200002F0C5FB204914
:10222000200002F09CFA1F4B186805F0C1FE0095D3
:1022300002000B00200002F0B7FB1B49200002F057
:102240008EFA1A4B186805F0B3FE009502000B00D9
:10225000200002F0A9FB1649200002F080FA154B7D
:102260000A221968200002F0D8FA1349200002F06F
:1022700076FA124B0A221968200002F0CEFA1049B1
:10228000200002F06CFA0F4B0A221968200002F0BD
:10229000C8FA37BDEC040020448E00000C0000207A
:1022A000488E0000080000204D8E00000400002031
:1022B000528E000014000020568E000010000020F6
:1022C0005C8E00001800002070B50C4C52230522D3
:1022D0000121200000F004FC094D0A492A002000D9
:1022E00003F012F8084C0949200002F0B2FB2A0062
:1022F0000749200003F008F870BDC04660020020C6
:1023000000000020E5270000540200207693000022
:10231000B5490000F0B587B0694D280000F0D6FE41
:10232000002800DCC9E0280000F00CFFC1B20D2934
:10233000F2D0644C20000A2902D002F0D3FBEBE774
:1023400002F0F9FBA368002B04D15F49200002F0E2
:102350009FFBE1E7002300265C4903A80193029656
:1023600002F077FB03A9200002F0C5FB070003A8D9
:1023700002F020FB002F02D0FFF740FFE5E75449B1
:1023800003A802F066FB03A9200002F0B4FB0700DB
:1023900003A802F00FFB002F0AD0FFF7D7FE4D4B2A
:1023A0004D491E604D4B1E60280002F0E9F9CCE754
:1023B00002AB01AA4A49206805F0C4FF02287AD17D
:1023C000484901A805F0E8FF002805D0464901A8C2
:1023D00005F0E2FF00280AD1029D0021281C03F02D
:1023E0007FF9002800D10025404B1D60C4E740491B
:1023F00001A805F0D1FF002805D03E4901A805F04D
:10240000CBFF002809D1029D0021281C03F068F9A8
:10241000002800D10025384BE7E7384901A805F02E
:10242000BBFF002805D0364901A805F0B5FF0028FC
:1024300009D1029D0021281C03F052F9002800D187
:102440000025304BD1E7304901A805F0A5FF051E56
:1024500015D1029F0021381C03F02EF9002809D164
:102460002A49381C03F03CF9002806D1381C03F037
:10247000D1FF0500264B1D607EE7264DFAE7264971
:1024800001A805F089FF051E00D075E7029F002115
:10249000381C03F011F9002809D11C49381C03F03D
:1024A0001FF9002805D1381C03F0B4FF05001B4BB1
:1024B000E1E7184DFBE71A4976E707B0F0BDC046E3
:1024C000EC0400205402002076930000C08E00002F
:1024D000618E000040020020658E0000480200204E
:1024E000718E0000788E00007B8E00000C000020B2
:1024F0007E8E0000818E000008000020848E000087
:10250000878E0000040000208A8E000000C07F44F7
:1025100018000020FF0300008D8E00001000002036
:10252000918E0000F0B585B0FFF7F4FE02F070FB6D
:10253000824A1368C01A132800D8F5E014331360D8
:10254000FFF7DCFD7E4B1C6803F084FF211C03F0C9
:102550009DFD7C4903F068FC211C03F0F3F8784BE7
:10256000041C1860784B186803F074FF211C03F0FA
:102570008DFD764B051C186803F06CFF011C281CB0
:1025800003F052FC8021071C40004008C90503F0FD
:1025900093F8002800D000276D4D201C296803F017
:1025A00075FD6C4903F068FA2C606B4D2C68211C9A
:1025B00003F06CFDFA21890503F036FC211C03F0C1
:1025C000C1F8664B041C28601968381C03F02CFC09
:1025D000634B0390186880231B06211CC01803F06E
:1025E00023FC604B061C1C680399201C03F0AAF80E
:1025F000311C03F0A7F85C49051C03F071F80028B2
:1026000005D00021381C03F06BF8002818D10021F8
:10261000281C03F051F8002805D00021381C03F0D5
:102620004BF800280CD1514B381C196803F0FCFB07
:10263000484903F0F9FB211C03F084F8494B18606A
:10264000484D4B492C68201C03F036F8002800D078
:102650006CE04849201C03F043F8002868D12C6046
:102660000399201C03F06EF8311C03F06BF8002175
:10267000041C03F021F800285CD13B49201C03F026
:102680002FF8002858D180213B4EC9053368181C0B
:10269000039303F0FBFC211C051C03F021F8002828
:1026A0000BD180210398C90503F04CF8211C051CAF
:1026B00003F002F8002800D1251CFC2135608905B3
:1026C000281C03F03FF803F0A5FE0500FFF726FDE8
:1026D0001B4B186803F09EFE284C01000A222000C4
:1026E00002F09BF8264E2000310002F038F8164B1D
:1026F0000A221968200002F090F83100200002F050
:102700002EF8381C05F054FC0B0002210200009149
:10271000200002F049F93100200002F020F80A22DE
:102720002900200002F07DF805B0F0BD104C96E7BE
:10273000104C94E70024A6E70B4CA4E744020020C9
:10274000500200208FC2F53D180000201400002028
:102750004C0200200AD7A33C3C0200200C000020C1
:10276000040000204002002000007F4308000020F9
:102770000000F0C20000F04248020020EC040020FB
:10278000C28E000010B500210F2002F097FC104C03
:10279000200000F036F8200000F0EFF9200000F0F3
:1027A00085F8E1210B4C4902200000F08DFBFFF77A
:1027B000CDFC0949200001F0E3FFFFF71FFD0749A9
:1027C000200001F0DDFF02F023FA054B186010BD78
:1027D00060020020EC040020C48E0000FA8E00008D
:1027E0004402002010B50400C06805F0A7FC0623D1
:1027F000E05E002803DBC0B2002102F05FFC200095
:1028000010BD10B504000623C05E00280ADBC0B26C
:10281000012102F053FCA079002102F09BFC012071
:10282000607010BD0020FBE770B50500C0680E00A9
:1028300005F084FC2B7CEC7CE41A631E9C41033481
:102840007443A4B2AC80200005F06EFCE860002860
:1028500005D02200002105F0A9FC6E8070BDA88083
:102860006880FBE70322F8B58B110D118E1016401E
:10287000134015400A40467482740026FF228A42A3
:102880007641C268C47C077CC37405740670002A54
:102890000AD0E21B5B1B51424A4159424B419A42CA
:1028A00002D04188FFF7C0FFF8BD0000F8B5C3684B
:1028B0000400002B00D1EFE002F0B0F96369984208
:1028C00000D260616369C01A2C23FF339842F3D9A8
:1028D00072B60622A35E1822012053436F4FA688CA
:1028E000FA185268DB5D9040E268DB019619511CD2
:1028F00015786B4A9F186B4A9B182278002A00D0E3
:1029000058E0803294463860C046C046C046C04653
:10291000C046C046C046C046C046C046C0462A4221
:1029200000D192E0C046C046C046C046C046C04640
:10293000C046C046C046C046C046C046C046C04667
:10294000C046C046C046C046C046C046C046C04657
:10295000C046C046C046C046C0461860C046C046D5
:10296000C046C046C046C046C046C046C046C04637
:10297000C046C046C046C046C046C046C046C04627
:10298000C046C046C046C046C046C046C046C04617
:10299000C046C046C046C046C046C046521000D1E0
:1029A00070E0D2B2C046C046C046C046C046C0462F
:1029B000C046A8E7802294463860C046C046C0465C
:1029C000C046C046C046C046C0462A4221D0C04686
:1029D000C046C046C046C046C046C046C046C046C7
:1029E000C046C046C046C046C046C046C046C046B7
:1029F000C046C046C0461860521020D0D2B2C04671
:102A0000C046C046C046C046C046C046C046C04696
:102A1000D2E71860C046C046C046C046C046C04661
:102A2000C046C046C046C046C046C046C046C04676
:102A3000C046C046C046C046C046C046DCE7B142BC
:102A400026D20D7862460131B6E71860C046C0460E
:102A5000C046C046C046C046C046C046C046C04646
:102A6000C046C046C046C046C046C046C046C04636
:102A7000C046C046C046C046C046C046C046C04626
:102A8000C0466BE7B14203D20D78624601313AE7A6
:102A900062B602F0C3F86061F8BDC046148F000052
:102AA000184400411444004170B5437805000C00FF
:102AB000002B07D00623C05E002803DBC0B2002134
:102AC00002F0FCFA6B78EC80002B08D0E4B2012114
:102AD000200002F0F3FA0021200002F03BFB70BD61
:102AE00070B51500002204000E0042700272C26030
:102AF00042611900FFF7B6FE31002000FFF794FE97
:102B000029002000FFF7D0FF200070BD4388F7B5F3
:102B10008B421AD9037A150C140A002B16D1E4B291
:102B2000EDB20194D6B2B446047CC67CC768B44208
:102B300018D1032359437F186A46037C1279FD5448
:102B4000437CFA546246837CFA54F7BDFF26344036
:102B500035405C4316405D435E43240A2D0A0194D0
:102B6000360AE0E789007F18120E002B02D1D3B29B
:102B7000BB55E1E753431B0AFAE710B500218288F1
:102B8000C06805F013FB10BD10B5024801F07FFCD2
:102B900010BDC0467802002013B51249124800F05B
:102BA0003BF81249124800F037F81249124800F079
:102BB00033F81249124800F02FF81249124800F079
:102BC0002BF8124C1249200000F026F80123019343
:102BD000023300930D220B3321000E4801F0D0FB8D
:102BE00013BDC04600080042BC040020000C004297
:102BF000C404002000100042CC0400200014004255
:102C0000D404002000180042DC040020E40400206A
:102C1000001C00427802002000230371016070470D
:102C20009446F0B59E1E721E964162460568920754
:102C30002F6836063A4332432A60072505AC2478CC
:102C40000068A4012940214342680024022B00D0DF
:102C50005C03114321434160F0BD30B5C0250368DA
:102C6000AD031C6812052A402243C0240904A402B3
:102C700021401143196003685A6814435C6030BDF9
:102C80000123026811680B43136003681A68D207B6
:102C9000FCD4DA69D207F9D47047022302681168BC
:102CA0000B4313600268D3699B07FCD4704702682A
:102CB000137E9B0702D40379002BF9D10023037103
:102CC0007047002203685A8370470368187E4007E4
:102CD000C00F70470368187EC009704780230268E0
:102CE0005B42117E0B43137670470368588B800755
:102CF000C00F704702230268518B0B435383704708
:102D00000368187EC007C00F70470368188DC0B2F3
:102D1000704703681A7ED207FCD589B21985012352
:102D2000037118007047012203689A7570470122E9
:102D300003681A75704700000368214A30B5934252
:102D40002FD0204A93422FD01F4A93422FD01F4AA0
:102D500093422FD01E4A93422FD01E4A93421FD136
:102D60000E2319220121032599401B48C02401602C
:102D700099082B40AB40FC359D4089000918A40000
:102D80000859A843C0259D402B0003430B518023C5
:102D9000DB011A43114B5A805A7852B2002AFBDBEE
:102DA00030BD09231422DDE70A231522DAE70B23BD
:102DB0001622D7E70C231722D4E70D231822D1E7D8
:102DC00000080042000C00420010004200140042C3
:102DD00000180042001C004200E100E0000C00402E
:102DE000F8B504000F0016001D00FFF7A5FF200036
:102DF000FFF746FF1C21BB000B4071072268090C3E
:102E00000B431360842322689375012F1AD110217C
:102E1000012E00D008390C4B69431868C00002F03D
:102E200085FA0722216802408B895203DB04DB0C00
:102E300013438B81226803049089DB0C400B400311
:102E400018439081F8BDC046240000200020704740
:102E500070B50F26CB1D013902003240D5B22C00CF
:102E600000093034092A00DD07341C70013B8B4215
:102E7000F2D170BD10B50C000B4B1868FFF7E8FFDE
:102E800021000A4B08311868FFF7E2FF2100084BC8
:102E900010311868FFF7DCFF2100064B1831186865
:102EA000FFF7D6FF202010BD0CA0800040A08000BE
:102EB00044A0800048A0800008B4024B9C46103813
:102EC00008BC6047752E0000704770473F20704770
:102ED00013B56B460268D971073354681900012293
:102EE000A04716BD70B50A260B7892B06E44023327
:102EF00005000B703C220021300005F057F93948DD
:102F000001AC0690384824210790062020776846B7
:102F1000364AA1742281364A364BA281FD3AFF3AE5
:102F20008018C177684623390630C1776846073074
:102F3000C17702A8C1770720F277032608316944D8
:102F4000C87703A9CE7710212B366E44317009263D
:102F500021851F3169440E700CA9053E0E70332186
:102F60002380022369440B7006360DA90E70224996
:102F70003536A1863B216E44307010A86274E2772A
:102F800002703D3269446A440B7013704021002284
:102F9000E37023716371A37341336B44218719700C
:102FA0005A702B7DC039A370A37263770133DBB2F3
:102FB000A3776A7D0B200D0068441543C577312047
:102FC000684403703A23501C6B441870412302324A
:102FD0000A436B441A7021004222084800F004FDA5
:102FE00012B070BD1001042402060524090400007B
:102FF00001020000080B000007050000500500203A
:1030000008B4024B9C46103808BC6047E52E00000F
:10301000F8B5027D0B7904000D0000279A420CD10F
:103020000B784E78A12B0AD1212E06D10100072260
:1030300034311C4800F0D8FC01373800F8BD212B92
:10304000FBD1202E23D1010007223431154800F096
:103050000DFC9623626BDB009A421FD13B34237830
:10306000DB071BD4FA2002F001F900210D4800F023
:10307000C3FD0127232EE0D1EB78AA781B0213436E
:10308000094A00210748136000F0B6FDD5E7222E5B
:10309000EFD103008A783B331A70DAE702F0F0F8D8
:1030A000E3E7C046500500201C00002008B4024B96
:1030B0009C46103808BC60471130000010B5343011
:1030C0000822002105F072F810BD000010B5417D06
:1030D000006A013100F002FB034B1B6801335A1EEA
:1030E0009341181810BDC0462000002010B5417D46
:1030F000006A023100F008FB10BD10B5417D006A86
:10310000023100F0CFFA10BD70B50D00417D040012
:10311000130002312A00006A00F0BCFB002801D134
:103120000123636070BD000010B5054C23685A1C74
:1031300004D103685B69984703002060180010BD44
:1031400020000020074A0300106810B5411C03D07E
:1031500001235B42136010BD597D186A013100F0F4
:1031600049FBF8E72000002070B5050001F050FD94
:10317000F423FF330024984207D93B352C780A20EA
:10318000631E9C41E4B201F079FD200070BD002077
:103190007047704770470000FA239B0010B58360AA
:1031A000114B0022C3820300283383610F4B0400BC
:1031B0004260C2611800503323610830631D2162F0
:1031C0002060DA770A4A2F3303CA03C38323A3623A
:1031D000813BE3628033236301F086FA21001031E2
:1031E00001F053FA200010BD030200007C920000A1
:1031F00074920000022110B5094B1A68437D5B01EF
:10320000D318FF339C7A21439972437D0133DBB29B
:103210005B01D3180122FF33997A0A439A7210BDD9
:10322000080A002010B502490248FFF7B5FF10BD9B
:1032300050050020EC040020704710B5040001F098
:1032400067FD200010BD0000F0B5822919D1C3B27E
:10325000294D5A01AA189169284C80010C40C021BF
:103260008905214391612649083340187021506136
:1032700028685B011A5C8A43110030220A431A5401
:10328000F0BD0029FCD1C026C1B21B4C4B01E31894
:103290009A681A4DB6052A4032439A60194A80014D
:1032A00082185A600A000727246808325201115D0B
:1032B000B9430F000121394311559F6910493D4021
:1032C00040182E439E6158617020115D81430800B3
:1032D00010210143115599680B48A218084080211C
:1032E0004903014399609968890B890399604023D8
:1032F00011790B431371C3E7080A0020FFFFFF8F0A
:103300007C0500203C070020FF3F00F0EFF3108316
:1033100003600123436072B670470368002B02D13B
:1033200062B6BFF36F8F704773B5836D0400002BD7
:103330001BD10600A83635786846FFF7E7FF019BEA
:10334000EDB2013B02D33578EDB2FAE7684601935E
:10335000FFF7E3FF002D01D1002076BD2300A43349
:103360001868A0342368C01AF7E76846FFF7CEFF55
:1033700022000025019BF432013B02D31578EDB207
:10338000FAE768460193FFF7C8FF002DE4D0230059
:10339000F0331868EC34E5E710B5436D4468DBB2F0
:1033A0005A01A2189168094808330840802149034E
:1033B0000143916091685B01890B890391602268E8
:1033C000D318402219790A431A7110BDFF3F00F04B
:1033D000F7B5436D4268DBB219000400083110688C
:1033E00049014118C979C90711D55B01D218936801
:1033F0009B049B0C0CD12000FFF7CEFF63681A687A
:10340000636DDBB208335B01D3187F22DA71F7BD3D
:10341000E16D002923D12100A4310B602300012597
:10342000AC33E56568465360FFF770FF2600200067
:103430002100019BA836013BF430F5315A1C33D0F2
:10344000357002785F1ED2B20A700A78002A04D161
:1034500020000193FFF7A0FFE8E73B00EEE7210023
:10346000F0310B600023E36523006033536068464E
:10347000FFF74CFF0125260020002100019BF436B8
:10348000013BA830F5315A1C0ED0357002785F1E12
:10349000D2B20A700A78002A04D120000193FFF703
:1034A0007BFFE8E73B00EEE768460193FFF735FF57
:1034B000A4E737B56B46DC1D00230D00237001F037
:1034C00013F9210001F09EF82B6818182860207865
:1034D0003EBD00000078002810D00121084B1B6879
:1034E0001A898A431A810822198B0A431A830422F3
:1034F000198B0A431A830022024B1A607047C04698
:10350000080A0020000A002010B50F4A93699B0B9F
:103510009B03936113680222FF331A729879823AEF
:1035200002439A711A7A9207FCD57F24074A2140F8
:10353000937A0800A3431900802301439172917A82
:103540005B420B43937210BD080A002000500041FB
:1035500010B50C0001F0C8F8210001F086F8002831
:1035600004D1034A93699B0B9B03936110BDC04632
:10357000080A0020F8B50D00832A19D1CBB23B4CC4
:103580005A01A21891693A48AD010840C021890545
:1035900001439161374920686D18702108335561E6
:1035A0005B011A5C8A43110040220A431A54F8BD99
:1035B000022A55D1304A8B009858002802D003685F
:1035C0005B699847F82001F09FFB0400274E2B4BC6
:1035D0004660036040220021083004F0E7FD22002D
:1035E0000023A032A3646565E3642365A365E365F6
:1035F0005360D3641372136013654C3213725372A9
:10360000FF222B001340590171188868184F0833A6
:103610000740C020800538438860306807265B017A
:10362000195CAD00B1430E0003213143195423004E
:10363000616D606811404901411860334B60616DF4
:1036400063680A401B6852019B180122FF33997A74
:1036500020000A439A72FFF79FFE074B5C51A6E7D2
:1036600011002800FFF7F0FDA1E7C046080A00207E
:10367000FFFFFF8F7C05002054050020E49200002E
:1036800070B505000124064BA200D258002A06D0CE
:10369000210028000134FFF76DFF0A2CF3D170BD23
:1036A000280500200B4BCAB20B488901C9185301E9
:1036B000C318596199690832890B890399610368B4
:1036C00052019A180223D3715179823B0B435371F3
:1036D0007047C0467C050020080A0020084B8A007D
:1036E000D05810B5002803D003689B68984710BDD8
:1036F000C9B2044B4901591888688004800CF6E768
:1037000054050020080A002010B50C00FFF7E6FF62
:1037100000280CD0064BE4B21B68083464011C1965
:10372000802362795B42134363710223E37110BD0E
:10373000080A0020F0B51C002A4B85B01B68070062
:103740000D000292002B4AD0274B8A00D058002847
:1037500008D0036822005B680299984704002000A3
:1037600005B0F0BD3800FFF7B9FF844204D9290045
:103770003800FFF7B3FF04000121EBB21B4E0393A7
:103780005B010193F21893689B0B9B039360019A72
:10379000336802989B18FF335A7A0A435A72144BC3
:1037A000A901C918220004F0E5FC002CD7D029009B
:1037B0003800FFF793FF0028D1D14021039B3268E6
:1037C00008335B01D3181879014319710121D971AC
:1037D000019BD318FF339A7A0A439A72BFE70124F8
:1037E0006442BCE7000A002054050020080A0020BB
:1037F0003C07002013B56B46DC1D22000123FFF7B8
:1038000099FF012801D1207816BD01204042FBE735
:1038100070B5CBB2124A13485C01890189180219AC
:1038200051609168104D08330D40802149032943B0
:10383000402591609168890B8903916001685A0164
:103840008A1816793543157195796D06FCD55B019B
:10385000C918CB79DB07FCD500198068C0B270BDF0
:103860003C070020080A0020FF3F00F070B50D0063
:1038700000211400FFF7CCFFA04200D92000002354
:103880000349A34203D0CA5CEA540133F9E770BD8F
:103890003C070020F0B51E003A4B85B01B680F00B6
:1038A0000192002B35D08023DB019E4231D80025C8
:1038B000354B8A01D3180293002E2CD0334B1B6852
:1038C0000393FF233B401C0000930834039B6401D7
:1038D0001C19A379DB0921D02D4B2E49186801F062
:1038E00025FD2D4B1721584301F020FD2B4BE2798C
:1038F000920713D4DA5D002A01D10138F7D20122F0
:10390000DA55009B5A01214B9B189A69920B92033E
:103910009A6101256D42280005B0F0BD00221F4BC1
:103920003400DA553F2E09D9009B40245A01174B29
:103930009B188022996912060A439A612200019914
:10394000029804F017FC009BA1045A010F4B890C4C
:103950009B18029A2D195A619A69361B920B920391
:103960000A439A61009B039A08335B01D318022231
:10397000DA715979823A0A435A71019B1B190193F2
:103980009AE7C046000A00207C050020080A0020B3
:103990002400002040420F0070110100710500203A
:1039A00070B50D001C000D4BAE01F6181100300073
:1039B000220004F0DFFBEDB209496D014D196E6183
:1039C000AB69084A20001340AB61AB69A2049B0BB2
:1039D000920C9B031343AB6170BDC0467C05002075
:1039E000080A0020FF3F00F0F7B5104B01901B784C
:1039F0000F001500002B0CD10D4B16001C78002C6D
:103A000009D00C4E0C4834882018641904F0B2FB1D
:103A100034802800FEBD002EFBD03A19330000216F
:103A20000198FFF7BDFF2418361AF4E7FC080020C0
:103A3000FD090020FE090020FD080020F8B50F0058
:103A400016000024012A26D9100004F06DFB0500A1
:103A5000380004F0ABFC0323022201304000287040
:103A60006B7096420DD9397800290AD0531CDBB20D
:103A70000137A9549E4203D00232EC54D2B2F0E78F
:103A8000320029000548FFF7AFFF441EA041C4B231
:103A9000280004F053FB2000F8BDC046500500206C
:103AA000F0B50024012685B0184B0F0069461E7042
:103AB00005000094FFF7FDFC154B01A90B806A3B44
:103AC000FF3BCB715A330B72009B8C7109334B80D7
:103AD0000E4B4E7108711C703A00092F0FD00D4F1C
:103AE00009223E700C4E280000943480FFF77CFFC2
:103AF00069462800FFF7DDFC328808493C70280041
:103B0000FFF772FF012005B0F0BDC046FC080020A1
:103B100009020000FD090020FE090020FD08002028
:103B200070B5CE7892B005000C00022E0BD18B79C7
:103B3000C9792C4809021943FFF7B2FF411E884199
:103B4000C0B212B070BD00F0CFFD210000F06EFDDC
:103B5000002803D0C117081AC00FF2E7012E0ED1BA
:103B6000E279A37912021A431F49112A13D8D2B25B
:103B7000002A10D02800FFF737FF0120E1E7032ECD
:103B8000DFD1A378002B08D1E279A37912021A437E
:103B90001649032AEBD90A78ECE7022B08D1E2791F
:103BA000A379120212491A432800FFF747FFC8E71A
:103BB000012B05D1E279A37912021A430D49F3E7EB
:103BC000032BBED14122010001A804F0EFFA00F05E
:103BD0008BFD01A900F03AFDE279A37912021A43A4
:103BE00001A9E1E750050020209300001093000098
:103BF0000093000014930000CBB204495B01C91884
:103C00008B699B0B9B038B617047C046080A0020A1
:103C100037B5050048780C000B2810D801F07CFB64
:103C2000061B0F2B0F404561494C5A5D097801AACC
:103C3000002906D1022311802800FFF7B1FE0120E0
:103C40003EBD00231380284B1B78012B00D113703D
:103C500002230021F0E78A780023012A03D101AA78
:103C60001380224BF0E7204A1370214A93699B0B83
:103C70009B039361E3E78C78012C06D100211B4B59
:103C800001AA1C7011702300D6E70120002CD7D1A7
:103C9000154B174A187093699B0B9B039361CFE7F1
:103CA00089782800FFF730FCC9E72800FFF738FFC4
:103CB000C6E701230F4ACCE70B780020DB06BFD113
:103CC0002800FFF7DDFCA2780A4B0B481A60FFF7CB
:103CD00091FACAE70123094ABBE78A78074B1A60C1
:103CE000C3E70020ACE7C04670050020780500203F
:103CF000080A0020000A0020EC040020040A00202A
:103D00003A4BF7B51E780500002E5FD1384C23687A
:103D10009A8B12070DD5082231009A833000FFF7E5
:103D200093FA10222368FF33997A0A439A72314B2F
:103D30001E6023689A8B520701D504229A83FF33B1
:103D40001A7A920603D52022597A0A435A721A7AAD
:103D5000D20623D569460800274AC0CAC0C0A26857
:103D6000920B9203A2604022587902435A71602359
:103D70000A7828001A422AD1FFF74AFF2368FF3346
:103D8000002827D08022997952420A439A711A7AE0
:103D9000520603D54022597A0A435A727F260125DA
:103DA0002368FF331E722F00236808377F01DB1959
:103DB000DB79002B07D0114BAA00D05800280DD07A
:103DC00003681B6898470135082DECD1F7BDFFF754
:103DD000BFFBD3E720210A4A9171D8E7290009489F
:103DE000FFF7D8F92368DF19FE71ECE7FD09002021
:103DF000080A0020000A00203C070020540500208B
:103E0000FF500041EC04002010B50248FFF778FF96
:103E100010BDC0465005002080235B0003800023B6
:103E2000436007330372704783000148C01870472E
:103E300028050020836C402B09D03F22036CC1541D
:103E4000036C013313400364836C01338364704754
:103E5000F7B505006846FFF759FA00264022019B96
:103E6000013B02D32E6D961BFAE768460193FFF7DC
:103E700054FAAB6D6846002B4FD1FFF747FA290083
:103E8000019BA831013B5A1C0CD00C785A1EE4B29D
:103E9000002C05D168460193FFF73FFA2000FEBDD4
:103EA0001300F0E7684601930024FFF736FA2A0072
:103EB0002900A0321368A431B4420ED00868984299
:103EC0000BD92800591CEB181160603319780830A1
:103ED000C9B2FFF7AFFF0134E9E709689942DDD1C4
:103EE000002313600133AB656846FFF70FFA2F001C
:103EF0002A000021019BA837013BF532581CC9D08C
:103F0000397010785E1E002805D0117028000193CA
:103F1000FFF742FAEBE73300F0E7FFF7F7F9290084
:103F2000019BF431013B5A1C06D00C785A1EE4B2B6
:103F3000002CAFD01300F6E7684601930024FFF78A
:103F4000ECF92A002900EC321368F031B44202D0B7
:103F5000086898421DD8096899429FD10023684695
:103F60001360AB65FFF7D2F92F002A000021019BF7
:103F7000F437013BF532581C00D18BE739701078CB
:103F80005E1E002811D0117028000193FFF704FA7B
:103F9000EAE72800591CEB181160AC331978083097
:103FA000C9B2FFF747FF0134CBE73300E3E710B5B1
:103FB0000400FFF74DFF206D10BD10B50400FFF7A2
:103FC00047FF236D002B03D0E36CE418207A10BD6B
:103FD00001204042FBE7F7B517000E000400FFF791
:103FE00037FF6846FFF792F93F2200259446019B70
:103FF000013B5A1C19D0BD4215D2226D002A12D0A5
:104000000121226D4942002A0AD06046E26CA218C2
:10401000117AE26C01320240E264226D013A2265BB
:1040200071550135E7E7013BE3E768460193FFF788
:1040300074F92800FEBD0000014B024A1A60704767
:10404000080A0020005000412023F7B5474A050028
:10405000D1690F200B43D361012245490B781343EB
:104060000B70444B19788143197006211C78214349
:10407000197041490C7822430A701A7802401A706C
:10408000602219780A431A703C4B3D4A5A805F7887
:10409000FF09FCD13B4800F0B5FD01233A4C3B4EF3
:1040A0002268300011780B431370802239005200CF
:1040B00004F07CF822689378DB07FCD456621F2654
:1040C000334B1B68590B980C9B01314030405B0F00
:1040D000B14200D105211F2800D10238072B00D1A1
:1040E000043B31408901178D01912A4930400F402E
:1040F000019939431185118D0700B14308003843F8
:104100001085118D1803244B7F260B4003430C2090
:1041100013850823D17881430B430321D370226890
:10412000D3788B4301390B43D37022681378334023
:104130001370042322681678334313702268C12455
:104140001389A40083431548138103591B021B0ADA
:104150000351802303601378114819430123117020
:104160002B700021FEF7B0FEF7BDC04600040040F2
:10417000584400413C44004159440041000C004077
:1041800006400000093E0000080A00200C0A00203A
:10419000246080003FF8FFFFFF8FFFFF00E100E099
:1041A000EC0400200120704710B50368014A1B6A27
:1041B000984710BD13040000FC30006A7047872345
:1041C0009B00C018C36880204000C01A70470300DD
:1041D000FC331A6A002A03D0DB69C018007D7047DF
:1041E00001204042FBE710B504000069FEF748FDDE
:1041F00022000023FC329361D36113628722920074
:10420000A4186360A360E36010BD872310B59B0012
:10421000C218D368002BFCD10069FEF748FD10BD21
:10422000F02001403039484248417047F0231B01DB
:104230001940802306209B0099420AD00133FF33A6
:104240000130994205D0802302385B00994200D0AA
:10425000002070470F2001400020012903D00239BF
:10426000481E8141481C70478B23F0B5182685B045
:1042700002919B000400C05C330008214343324D8F
:104280001700EB18595600F091FF304B0821E05C05
:1042900033004343EB18595600F088FF2C4BE25C87
:1042A0000393022A09D11133E05CFF2805D00821CD
:1042B0004643AE19715600F079FF8C26B600A05D1A
:1042C000FF2819D0012100F0F9FE1822A35D214931
:1042D0005A43AB56AD18DB0158188D218900605048
:1042E0001D4901225B188E218900635069688A404C
:1042F0008F21890062501A600122029B11002069FF
:10430000FEF76EFD39002000FFF790FF3900050031
:104310002000FFF79FFF390006002000FFF780FF15
:1043200033000090290020690122FEF779FC0B4B35
:104330002069E25C039BE15CFEF78FFC2069FEF7DD
:10434000ACFC05B0F0BDC046148F00002D0200008B
:104350002F02000018440041144400412E020000C6
:10436000802210B504005200002103F01FFF23003B
:104370000022FC335A6020009A60DA6010BD000011
:10438000F7B51D0008AB1B780400009309AB1B7840
:104390001600019300234360FA239B008360114BB6
:1043A0000F00083303601430FFF7DAFF20002130DC
:1043B000FF30FFF7D5FF8B236A469B002761E65449
:1043C000094B1278E554094B2000E2546A46084B29
:1043D0001279E2548C22313BFF3B9200A3541032FD
:1043E000A354FEBD349300002D0200002E020000F5
:1043F0002F020000F7B5EFF3108300930123019320
:1044000072B680260200FF25019BFC327600013B3C
:104410005C1C0FD0D4685F1EB44209D054680155AB
:10442000546801342C405460D4680134D460EEE701
:104430003B00EDE768460193FEF76FFFF7BD13B54C
:10444000EFF3108300930123019372B6019B5A1E70
:104450000192002B15D00300FC33DA68002A0DD03E
:104460009A68845C9A680132D2B29A60DA68013A3A
:10447000DA606846FEF751FF200016BD0124644251
:10448000F7E701246846FEF748FF6442F4E710B5F9
:1044900004000069FEF729FC002805D02069FEF71A
:1044A00034FC2069FEF726FC2069FEF70EFC00288C
:1044B0001BD02069FEF729FC010020001430FFF713
:1044C00099FF8C239B00E35CFF2B0ED02300FC3371
:1044D0001A6A80235B009B1A092B06DC8D238F222E
:1044E0009B009200E358A2581A602069FEF708FC6E
:1044F00000280ED087239B00E318DB68002B14D024
:1045000020002130FF30FFF79AFFC1B22069FEF78B
:1045100000FC2069FEF7DEFB002805D02069FEF7CD
:10452000DDFB2069FEF7CDFB10BD2069FEF7FFFB28
:10453000EFE70000F8B5040000690D00FEF7E0FBAE
:1045400087239B00E618002802D0F368002B34D0A4
:1045500001278022F3685200934223D1EFF31083A6
:104560003B4210D1174B5B68DB05DB0DF1D0103BF4
:104570005BB2002B10DAF13A1340083B9B08124A59
:104580009B009B181B682069FEF7BAFB0028E0D04F
:104590002000FFF77CFFDCE79B08C0330B4A9B0041
:1045A0009B58F0E720002130FF302900FFF722FF61
:1045B0002069FEF7B8FB0120F8BD29002069FEF74D
:1045C000A8FBF8E700ED00E01CED00E000E100E0F2
:1045D00010B504001430FFF732FF8C239B00E35C1E
:1045E000FF2B0ED02300FC331A6A80235B009B1A3A
:1045F0000A2B06DD8E238F229B009200E358A258DF
:104600001A6010BD70B50E0000254468002C0BD058
:10461000236831005B6820009847002802DB2D18D2
:10462000E468F3E701256D42280070BD70B50D0008
:104630004468002C08D0236829009B682000984714
:10464000002802D1E468F4E7200070BD70B50D00C9
:104650004468002C07D0236829002000DB689847B5
:10466000E4682D18F5E72C7070BD70B50D00446836
:10467000002C08D0236829001B68200098470028D8
:1046800002D1E468F4E7200070BDF8B542788B7978
:104690000D00017A9B18040000208B4222DC636825
:1046A000834219D16560002623786A71EA792B71FB
:1046B0009B182370AB79B34213D9AB68B70060780D
:1046C000DF19FFF7B1FB3B68013603606378F6B290
:1046D00001336370EEE70B00D9680029FBD1DD6080
:1046E000E1E70120F8BD000070B50126054D064C3C
:1046F0002B68334203D12000FFF78EFB2E60200091
:1047000070BDC0460C0B0020100B0020F7B5060052
:104710000D000C008B180193019B671B9C4207D076
:10472000336821781B683000984701340028F3D1A2
:104730003800FEBD70B5040008000D0003F036FE21
:104740002368020029005B682000984770BD10B5FF
:104750000B1E02D0FFF7EEFF0300180010BD10B5CE
:10476000FFF7F5FF10BD10B503681B68984710BD33
:1047700010B50249FFF7DEFF10BDC046749300007C
:1047800070B50400FFF7E3FF05002000FFF7F0FF1E
:10479000401970BDF0B58BB06B4615000022053393
:1047A0000600DA770800012D00D80A2509AC290097
:1047B00000F042FECAB2130037330700DBB209290A
:1047C00002D813003033DBB2013C2370002FEED14E
:1047D00021003000FFF7BBFF0BB0F0BDF8B50600BD
:1047E0000C00151E04D10368C9B21B689847F8BDB8
:1047F0000A2A0CD100290BDA2D21FFF7B4FF614200
:1048000007002A003000FFF7C5FF3818EFE7D2B2E3
:1048100021003000FFF7BEFFE9E710B5FFF7DEFF2C
:1048200010BD70B50400FFF7D9FF05002000FFF7A9
:104830009FFF401970BD0000F7B51E00089B0500E2
:104840001700002B01DA0223089331003A003300ED
:10485000380003F029FB4B49002814D101227400D1
:1048600064085242484B3800210003F01DFB002829
:104870000FD10122444B52423800210000F0ECFEDF
:10488000002806D141492800FFF754FF040020000A
:10489000FEBDE0223E4B12063800310000F0E6FE7D
:1048A000002801D03B49EEE7E0223B4B12063800DE
:1048B000310000F0C7FE0028F4D1002200233800A8
:1048C000310000F0BFFE002814D02D212800FFF792
:1048D0004AFF80231B060090F618002400202F4971
:1048E000089B9C4208DA00222D4B013402F018F993
:1048F000E4B2F5E70090F0E70B0002003100380069
:1049000001F0F2FD0F00060000F0FEFE0A22019009
:1049100001002800FFF73EFF009B1C18089B002B9E
:10492000B5D0019803F012FB02000B0030003900F3
:1049300002F072FF06000F0028001A49FFF7FAFE86
:104940002418089B5A1E0892A1D3154B0022300050
:10495000390002F0EFFC0F00060000F0D5FE0A223D
:10496000010000902800FFF715FF2418009803F0BD
:10497000EDFA02000B003000390002F04DFF060096
:104980000F00DEE768930000FFFFEF7F6C930000ED
:10499000FFFFEF4170930000FFFFEFC10000E03F19
:1049A000000024406F8E000007B504990091FFF7C6
:1049B00043FF0EBD10B504000068002801D003F0CD
:1049C000BDFB200010BD10B504000068002801D018
:1049D00003F0B4FB00232360A360636010BD70B5D7
:1049E00004000D000068013103F090FC031E01D0AB
:1049F000012028C470BD036810B50400002B04D04A
:104A000043688B4201D3012010BD2000FFF7E7FF70
:104A10000028F9D0A368002BF5D122681370F3E7C2
:104A200070B50E00110004001500FFF7E4FF002828
:104A300004D12000FFF7C7FF200070BD2A0031001D
:104A4000A560206803F096FB00232268A1685354F8
:104A5000F2E7002370B504000D000360436083603B
:104A6000994207D0080003F0A1FC290002002000B1
:104A7000FFF7D6FF200070BD70B5050008000C00E0
:104A800003F094FC210002002800FFF7C9FF70BD6D
:104A900010B50400002903D0FFF7EEFF200010BD81
:104AA000FFF791FFFAE7F7B504000191160000291E
:104AB00002D100252800FEBD0125002AFAD0836816
:104AC000D7183900FFF797FF051EF2D02368A268B8
:104AD00001999818320003F04DFB00222368A7606B
:104AE000DA55E7E707B56B46D9710733012219009C
:104AF000FFF7D9FF0EBD70B50123884217D0826839
:104B00008C680023A24212D10133002A0FD005681D
:104B10000C68287800280CD003F0E2FC060020780E
:104B200003F0DEFC013501348642F2D00023180088
:104B300070BD0123FBE7F8B507680600002F22D0FF
:104B40008468002C1FD03D00287803F0D3FA002899
:104B500001D00135F8E7013C3C19207803F0CAFA8E
:104B6000002803D0A54201D8013CF6E70134621BBE
:104B7000B260AF4203D22900380003F004FB0021E9
:104B80003268B368D154F8BDFEE70000034B10B59E
:104B90001B68002B00D0984710BDC0461C0B00209E
:104BA00070B50F490F4CA14204D100F0B5F800F0E8
:104BB0008BF8FEE70C4D00238D42F6D0CA18E8189A
:104BC000A24205D3094B8242EFD00949002204E0FA
:104BD000006804331060F1E704C38B42FCD3E4E7C0
:104BE0000000002020020020549600002002002037
:104BF000340B002010B500F064F8002801D100F05B
:104C000055F810BD014B18607047C0461C0B0020C2
:104C1000014B18687047C046200B0020F7B51348B9
:104C2000012284461249134C8E68636805689B0E06
:104C30001340019288686268019F920E3A4067466D
:104C40003F6893420ED1BD420CD186420AD35B1914
:104C5000FA254868AD00861B07486B437043000D7A
:104C6000C018FEBD3D0013000600E3E7200B002046
:104C700010E000E000ED00E05555000070B5041EA6
:104C800010D0FFF7CBFF050000F01AF8FFF7C6FFC2
:104C9000054B401B9842F7D9FA23013C9B00ED18C5
:104CA000002CF3D170BDC046E703000010B5034AE5
:104CB00013680133136000F0EBFA10BD200B0020E5
:104CC000704700207047704710B500F0D5F803F02A
:104CD000EDF9FFF7F8FF0120FFF7D0FF084C2000A7
:104CE000FFF7B2F92000FEF7F5FBFDF74BFDFDF7EE
:104CF00019FC044B002BFAD000E000BFF7E7C046D8
:104D0000500500200000000010B503F00DFA10BDA2
:104D100010B503F013FA10BD1E2270B5464847497E
:104D2000436893431C3A1343436008238C6923432D
:104D30008B61434C434B9C829C8A14439C82DC686D
:104D40001442FCD00124404A14701578254203D047
:104D500055786DB2002DF8DB01249460547864B26C
:104D6000002CFBDB394C5460547864B2002CFBDB24
:104D70008224E4015480547864B2002CFBDB0224CA
:104D80009C840E34DD682542FCD0314CDC6210245A
:104D9000DD682542FCD09D8C2E4C2C439C84102435
:104DA000DD682542FCD002249D8C80262C439C8407
:104DB0004024DD683542FCD0DD682542F9D010245E
:104DC000DD682542FCD000249460547864B2002C45
:104DD000FBDB214C5460547864B2002CFBDB1C6A72
:104DE0001E4D2C4080251C621C6AAC431C620323B0
:104DF00093601B4B536053785BB2002BFBDB0023AB
:104E0000FF240B72174A4B728B72CB72164B1A60CF
:104E1000164B174A1B6811689A065B01C90E23409E
:104E2000520F12020B431343124A13858023426828
:104E30001343436070BDC046004000410004004081
:104E40000C06000000080040000C004001050100B5
:104E5000B905FF7D040A000000070300FFFCFFFF07
:104E600003060100006CDC022400002024608000A6
:104E70002060800000400042FA21314B10B51868D4
:104E8000890000F053FA2F4B0138984256D82E492A
:104E90002E4A4860C020136A00061B021B0A034307
:104EA0001362002407238C600B608021136A0906BB
:104EB0001B021B0A0B431362FC22254B196A0A438F
:104EC0001A62FC22196A92010A431A62A022196A24
:104ED000D2020A431A62E0B20021013400F0EEF877
:104EE000162CF8D11B4B1C005A7852B2002AFBDB5F
:104EF000194A5A80194B1A00597EC9090129FBD059
:104F0000E421C90099803F21D970537EDB09012B30
:104F1000FBD0C02300205B011361907000F02EF8DD
:104F200063785BB2002BFBDB0D4B0E4A6380D379B9
:104F3000DB09012BFBD04123537010BDFEE7C046B7
:104F400024000020FFFFFF0010E000E000ED00E083
:104F500000040040000C00401E40000000400042E1
:104F60002140000000480042914202D002D98A1A32
:104F7000D0407047521A9040FBE70000164A00B537
:104F80001300517EC9090129FBD00138042816D825
:104F90001969124A0A400F211A615A788A4300F0AF
:104FA000BBF90308060B0300110001220A435A70E3
:104FB00000BD11000322F9E711000222F6E7F023F9
:104FC00011691B050B430F21136153788B431900A3
:104FD00002230B435370EBE700400042FFFFFFF05A
:104FE00010B504000E2801D80F34E4B201212000CE
:104FF00000F0DCF81823102163432B4CE4186156B1
:10500000002901D014290DD1284B1800DA79D209D2
:10501000012AFBD002241A78A2431A70C379DB0953
:10502000012BFBD022480300427ED209012AFBD08B
:105030001F2402692140A2430A4302615A7ED20919
:10504000012AFBD0022219780A431A705A7ED2092B
:10505000012AFBD00222197B0A431A731A7ED20757
:10506000FCD501221A765A7ED209012AFBD00222EF
:10507000197B0A431A731A7ED207FCD5588B80B26B
:105080005A7ED209012AFBD002211A788A431A706B
:105090005A7ED209012AFBD0064B1A68064B1968C2
:1050A000FFF762FF10BDC046148F000000480042A9
:1050B000004000422C00002028000020182330B5BA
:1050C0001D00040045430820204A55192856013088
:1050D00014D0032912D808006343D156D31800F026
:1050E0001BF902280E1B5868CB010221184A9B1895
:1050F0001A1840321170012282405A6030BD58683F
:10510000CB010621124A9B181A1840321170012255
:1051100082405A609A61F1E75868CB0106210C4A37
:105120009B181A1840321170012282405A605A614D
:10513000E4E75868CB010221054A9B181A1840324F
:105140001170012282409A60D8E7C046148F000097
:10515000004400411823F0B508245843114A13189D
:105160001C5701341BD0012635005F688356BD40B3
:105170000D4ADB019A18906805420BD10C00601EA5
:105180008441D2194032107834400336A400B04331
:1051900020431070044A9B18002901D15D61F0BDC5
:1051A0009D61FCE7148F0000004400411822424337
:1051B000F8B52C4E0300B218127A52B21400013224
:1051C0000ED0481C00240C280AD800F0A5F80720AF
:1051D000202020202020200B0B0B0B0001246442F8
:1051E0002000F8BD092905D10021D8B2FFF766FFDC
:1051F0000024F5E70A2902D1D8B20839F6E70024DD
:105200000B29EDD1D8B20A39FFF758FFE8E718208B
:105210004343F2185568F3562C00134ADB016E081D
:1052200017389B18C9B204409E19002C0DD00F24CA
:1052300030363278090122401143C9B25B1931700E
:1052400040331A7810431870D2E732000F273032FB
:1052500016785B19BE433143117040331A781043FE
:105260001870BDE7148F00000044004110B5040021
:10527000FDF78FFF014B1C6010BDC04630000020C1
:105280000122024B52421A607047C0463000002093
:10529000164A10B51368591C26D0013B1360002B29
:1052A00022D172B6124B134A0433934213D9124AD5
:1052B00001211000147D0C42FCD02021148BFF3101
:1052C0009B085B0021431183D3610C4B13800123A6
:1052D000027D1A42FCD0BFF34F8F094B094ADA60B6
:1052E000BFF34F8FC046FDE710BDC0463000002021
:1052F00000200000030200000040004102A5FFFF63
:1053000000ED00E00400FA050B0010B501001800E4
:1053100002F0BEFE10BD000002B47146490849000B
:10532000095C49008E4402BC7047C0460022430815
:105330008B4274D303098B425FD3030A8B4244D35D
:10534000030B8B4228D3030C8B420DD3FF2209029F
:1053500012BA030C8B4202D31212090265D0030B5E
:105360008B4219D300E0090AC30B8B4201D3CB0354
:10537000C01A5241830B8B4201D38B03C01A524196
:10538000430B8B4201D34B03C01A5241030B8B4298
:1053900001D30B03C01A5241C30A8B4201D3CB0283
:1053A000C01A5241830A8B4201D38B02C01A524168
:1053B000430A8B4201D34B02C01A5241030A8B426B
:1053C00001D30B02C01A5241CDD2C3098B4201D383
:1053D000CB01C01A524183098B4201D38B01C01A01
:1053E000524143098B4201D34B01C01A5241030978
:1053F0008B4201D30B01C01A5241C3088B4201D327
:10540000CB00C01A524183088B4201D38B00C01AD3
:10541000524143088B4201D34B00C01A5241411AFA
:1054200000D20146524110467047FFE701B5002007
:1054300000F0F0F802BDC0460029F7D076E77047CB
:1054400003460B437FD4002243088B4274D30309E5
:105450008B425FD3030A8B4244D3030B8B4228D386
:10546000030C8B420DD3FF22090212BA030C8B42AC
:1054700002D31212090265D0030B8B4219D300E04C
:10548000090AC30B8B4201D3CB03C01A5241830BD1
:105490008B4201D38B03C01A5241430B8B4201D381
:1054A0004B03C01A5241030B8B4201D30B03C01AAA
:1054B0005241C30A8B4201D3CB02C01A5241830A24
:1054C0008B4201D38B02C01A5241430A8B4201D353
:1054D0004B02C01A5241030A8B4201D30B02C01A7D
:1054E0005241CDD2C3098B4201D3CB01C01A5241E4
:1054F00083098B4201D38B01C01A524143098B426D
:1055000001D34B01C01A524103098B4201D30B0155
:10551000C01A5241C3088B4201D3CB00C01A52417A
:1055200083088B4201D38B00C01A524143088B423F
:1055300001D34B00C01A5241411A00D201465241D8
:10554000104670475DE0CA0F00D04942031000D3F7
:105550004042534000229C4603098B422DD3030A4C
:105560008B4212D3FC22890112BA030A8B420CD35C
:10557000890192118B4208D3890192118B4204D385
:1055800089013AD0921100E08909C3098B4201D305
:10559000CB01C01A524183098B4201D38B01C01A3F
:1055A000524143098B4201D34B01C01A52410309B6
:1055B0008B4201D30B01C01A5241C3088B4201D365
:1055C000CB00C01A524183088B4201D38B00C01A12
:1055D0005241D9D243088B4201D34B00C01A5241E9
:1055E000411A00D20146634652415B10104601D376
:1055F0004042002B00D54942704763465B1000D300
:10560000404201B5002000F005F802BD0029F8D0A5
:1056100016E770477047C0468446101C62468C46A9
:10562000191C634600E0C0461FB501F01BFE0028B0
:1056300001D40021C8421FBD10B501F073FD4042E6
:10564000013010BD10B501F00DFE002801DB002077
:1056500010BD012010BDC04610B501F003FE0028AA
:1056600001DD002010BD012010BDC04610B501F0C5
:1056700095FD002801DC002010BD012010BDC046B2
:1056800010B501F08BFD002801DA002010BD0120CB
:1056900010BDC0468446081C6146FFE71FB500F0F8
:1056A00073FB002801D40021C8421FBD10B500F0D3
:1056B000F5FA4042013010BD10B500F065FB00283E
:1056C00001DB002010BD012010BDC04610B500F068
:1056D0005BFB002801DD002010BD012010BDC0468D
:1056E00010B500F003FB002801DC002010BD0120F4
:1056F00010BDC04610B500F0F9FA002801DA00200C
:1057000010BD012010BDC04670B500220C4B040036
:105710000D00FFF7B5FF002804D12000290002F09A
:10572000DFFB70BD064B00222000290002F074F858
:1057300002F0D6FB80231B069C466044F1E7C0467E
:105740000000E041F8B54746CE4643025B0A4400FC
:10575000C20F9C464800DD004B02240E5B0A000E7F
:1057600080B5984626009146C90FDB00271A8A4269
:1057700029D0002F15DD00284AD1002B00D095E05C
:10578000ED08FF2C00D188E06B025B0AE6B25B02F9
:10579000F605580A3043D20710430CBC9046994690
:1057A000F8BD002F00D087E0601CC0B2012800DCEB
:1057B000B6E0EE1A720100D5C5E0002E3DD1002200
:1057C00000260023E3E7002F00DC96E000285DD0F0
:1057D000FF2C60D08022D20413431B2F00DDECE0AD
:1057E0002022D21B18009340F8405A1E93410343D5
:1057F000ED186B017BD50134FF2C00D1B7E00122FD
:1058000007262A406B089A4D1D4015432E4029E07B
:10581000FF2CB5D08022D20413431B2F00DDB2E051
:105820002022D21B19009340F9405A1E93410B438A
:10583000ED1A6B015BD5AD01AE09300002F00AFC38
:1058400005388640844265DC041B33002020013487
:10585000E340041BA640751EAE41334307261D00DE
:1058600000241E4001224B461A40002E04D00F2374
:105870002B40042B00D004356B0100D480E70134A9
:10588000E6B2FF2C2FD1FF26002380E7002B52D158
:10589000FF2C00D074E70A00ED08002DF3D0802320
:1058A000DB032B435B025B0AFF2670E7013F002FFF
:1058B000BED0FF2CB1D163E7002C47D0FF2869D0C0
:1058C0008024E4047A4225431B2A00DDC5E02C0035
:1058D0002026D440B21A95406A1E954125435D1B8F
:1058E00004008946A5E7AB015B0A50E700240122CA
:1058F0004B461A406B07BAD142E7002F3BD1013427
:10590000E0B201284ADDFF2CBDD00726ED186D0856
:105910002E40A7E70723574D241A35401E40A1E724
:10592000002C1BD1002D6ED1002B00D19AE00A0073
:105930001D003C0024E7013F002F00D158E7FF2C59
:1059400000D04AE7A7E75E1B894676E7002D1CD109
:105950000A00FF281FD004001D0011E7002D5DD1B3
:10596000002B17D180230022DB03FF260FE70A005C
:10597000FF2600230BE7002C21D1002D66D1FF2844
:10598000E9D11D0087E7012352E77A1CA7D0FA432B
:10599000FF2899D10A001D00FF24F1E6002E21D135
:1059A000002D4FD0002B4CD0ED186B019ED5314B04
:1059B00007362E4001241D4054E7012318E7FF2835
:1059C000DFD08024E4047F4225431B2F4DDC2026BA
:1059D000F61B2C00B540FC406A1E95412543ED188E
:1059E000040006E7002DCCD0002B00D153E7802126
:1059F0006046C903084203D04046084200D11D005A
:105A00000121114047E7002B00D1B9E6EA1A500105
:105A100025D507265D1B2E40894623E7FF24002B52
:105A200000D1ADE680226046D203104204D0404649
:105A3000104201D11D00894601224B46FF241A4025
:105A40009EE62B00DD080A0000249DE67A1CC6D0E5
:105A5000FF43FF28B9D11D001DE701253FE7151EB3
:105A600000D044E70022002391E60125B7E7C046B5
:105A7000FFFFFF7DFFFFFFFBF8B557464E4645464B
:105A8000DE464402E0B546008846640A360EC70F7B
:105A9000002E63D0FF2E24D08023E400DB041C43BF
:105AA000002399469B467F3E434642465D02D20F05
:105AB0005B006D0A1B0E9046924665D0FF2B55D0B9
:105AC00080220021ED00D2047F3B1543F61A4346A5
:105AD0004A467B400F2A00D98DE06D4892008258DB
:105AE0009746002C54D108239946063BFF269B4637
:105AF000DAE70025534602291BD0032900D1BFE075
:105B0000012928D030007F30002820DD6A0704D02A
:105B10000F222A40042A00D004352A0103D5300080
:105B20005C4A80301540FE2803DCAC01640AC2B236
:105B300001E0FF2200246402D205600ADB07104363
:105B400018433CBC90469946A246AB46F8BD01229C
:105B5000101A1B287CDD00220024ECE7002C1DD14C
:105B600004239946033B00269B469DE7FF3E002DFC
:105B700020D1022143464A467B400A430F2AD8D807
:105B80004548920082589746002D19D10121F1E72E
:105B90000C239946093BFF269B4685E7200002F02F
:105BA00059FA7626431F9C4000237642361A9946BE
:105BB0009B4679E74A4603231A439146032186E729
:105BC000280002F047FA431F36189D407636002120
:105BD0007DE780240023E403FF22ACE70025802337
:105BE000DB031C4228D01D4226D12B435C02640AF1
:105BF0004346FF229FE762016C01A24224D21B218F
:105C00000025013E012710006D005200002801DB35
:105C1000944201D8121B3D4301390029F3D11400ED
:105C2000621E944125436DE7BA4659462500534606
:105C3000022900D061E77CE78023DB031C43640278
:105C4000640A3B00FF2276E7121B1A210125D9E7DF
:105C50009E362A00B5402C00C240651EAC4114435C
:105C6000620704D00F222240042A00D004346201CB
:105C700003D4A401640A00225DE7012200245AE74C
:105C80008024E4032C436402640AFF2253E7C046E5
:105C900078930000FFFFFFF7B893000070B5420053
:105CA0004E024C0045026D0A120EC30F760A240EF6
:105CB000C90FFF2A0FD0FF2C11D00120A24200D023
:105CC00070BDB542FCD18B420DD0002AF8D128001E
:105CD000451EA841F4E70120002DF1D1EBE701209A
:105CE000002EEDD1E9E70020EAE7C04670B54A0092
:105CF0004E02450244006D0A240EC30F760A120EAE
:105D0000C90FFF2C15D0FF2A0ED0002C15D1002A68
:105D100001D1002E1CD0002D14D08B4227D00220A0
:105D2000013B1840013870BD002EEED002204042E9
:105D3000F9E7002DFAD1FF2A0ED0002A0ED1002E4D
:105D4000EDD00BE001230139994308000130EAE767
:105D50000020002DE7D0E2E7002EE7D18B42DED114
:105D6000944205DD0221581E08400138DBE700247B
:105D7000A24204DCB542D2D80020B542D3D2581E8C
:105D8000012398430130CEE730B5420044024D0272
:105D9000C30F4800640A120E6D0A000EC90FFF2AD5
:105DA00012D0FF280CD0002A12D1002819D1002DC2
:105DB00017D1002C2BD00220013B1840013826E0DF
:105DC000002DF0D0022022E0002CFBD1FF281FD0B4
:105DD00000281FD1002D1DD10220013B18400138A1
:105DE00015E0002C0ED08B42E5D10022904204DC5D
:105DF000AC42E0D80020AC4209D2581E012398439F
:105E0000013004E00123013999430800013030BD1D
:105E1000002DD7D18B42CED18242E7DD0221581E20
:105E200008400138F3E7C046F0B54E4657464546B0
:105E3000DE46E0B543025B0A450083B00F1C99467D
:105E40002D0EC60F002D57D0FF2D24D08020DB0053
:105E5000C0041843002381469A469B467F3D7C023E
:105E60007A00FB0F640A120E984623D0FF2A4BD00B
:105E7000E30080240020E4047F3A1C43AD186B1C2F
:105E800047460193534677403A000F2B48D87D4947
:105E90009B00CB589F46002B00D085E008339A46E4
:105EA000063B9B467C027A00FB0FFF25640A120E1C
:105EB0009846DBD1002C00D090E0524601231A43D3
:105EC00092460120DBE74C4658461700022824D0B2
:105ED000032800D1CFE00022002301284DD1580231
:105EE000D205400AFF071043384303B03CBC90463C
:105EF0009946A246AB46F0BD002B5BD104239A46DF
:105F0000033B00259B46AAE7FF35002C60D1524693
:105F100002231A4392460220B1E7FF220023DEE764
:105F20004B461B0C9C464B462604360C1804614617
:105F30003300220C6446000C43434E435043544309
:105F400080191A0C1218964203D9802149028C46F6
:105F500064441B041B0C1004C01883015E1EB34173
:105F6000800E1843130C1B199B0103431C002301D3
:105F700079D5012362081C401443019A7F32002A1C
:105F80004DDD630704D00F232340042B00D00434DD
:105F9000230103D53C4B019A1C408032FE2ABCDC15
:105FA000A3015B0AD2B29AE70C239A46093BFF256C
:105FB0009B4654E7180002F04DF84A46431F7625E9
:105FC0009A4000236D4291462D1A9A469B4646E719
:105FD000524603231A439246032050E7200002F062
:105FE00039F8431F2D1A9C40763D002047E7802357
:105FF0000027DB03FF2272E7424666E74C46320089
:10600000584662E780234A46DB031A4222D01C42EC
:1060100020D123435B025B0A4746FF225FE701234F
:106020009A1A1B2A21DC23000199D3409E318C400F
:106030001A0023005C1EA34113435A0704D00F2209
:106040001A40042A00D004335A0111D49B015B0A80
:10605000002244E780234A46DB0313435B025B0ACA
:106060003700FF223BE7019587E70022002336E750
:106070000122002333E78023DB0323435B025B0A17
:10608000FF222CE7F8930000FFFFFFF7F8B5474623
:10609000CE464400C20F80B547024802400A8446FB
:1060A000664648007F0A240EF60025009046FB0055
:1060B000000EC90FB146FF2800D185E001267140CE
:1060C000261A914257D0002E43DD002800D07FE0F1
:1060D0004946002900D1AAE0013E002E00D0F7E099
:1060E0005B1A5A0100D48BE09B019C09200001F04F
:1060F000B1FF05388440854200DDD3E0451B230015
:1061000020200135EB40451BAC40621E94412343E7
:10611000072400251C40012241460A40002C04D0DF
:106120000F211940042900D00433590100D480E024
:106130000135ECB2FF2D00D0A3E0FF2400235B0269
:10614000E405580AD207204310430CBC90469946F8
:10615000F8BD002E74D1601CC0B2012800DCA7E09D
:106160004A469C1A620100D5B6E0002CBED100223E
:1061700000240023E3E7002E00DC85E0002846D061
:10618000FF2C49D080224846D20410438146012288
:106190001B2E09DC20204C46801B84404A462000F0
:1061A000F240441EA04102439B185A0128D50135F4
:1061B000FF2D00D1A8E00122072494491A405B0872
:1061C0000B4013431C40A6E7002E00D078E775E78C
:1061D000FF2C54D080224946D20411438946012223
:1061E0001B2E09DC20214846891B88404A460100B5
:1061F000F240481E81410A439B1A5A0100D573E7B9
:10620000012241460A40590700D089E711E048467B
:10621000002858D1FF2C0CD1DB08002B00D18CE7D3
:106220008020C00303435B025B0AFF2487E7FF2C47
:1062300025D0DB08FF2DF0D05B025B0AECB27EE7D5
:10624000002C4DD0FF2818D08024E4047242234350
:106250001B2A00DDC4E01C002025D440AA1A93406C
:106260005A1E934123434A460500D31A884638E70D
:10627000721CF8D0F243FF28EAD10A004B46FF25F2
:10628000D7E79B015B0A5AE7002E41D1651CE9B2B2
:10629000012945DDFF2D00D14FE707244B445B0862
:1062A0001C4038E707225A4B2D1A2340144032E78E
:1062B000002C1DD1002B7AD14B46002B00D191E050
:1062C0000A000025B5E7013E002E19D14B446CE7CA
:1062D000FF2C84D1FF25ACE74A468846D41A05E74F
:1062E000002BC5D10A00FF28C8D005004B46A0E707
:1062F000002B49D14B46002B77D00A00FF2598E7A9
:10630000FF2C00D043E787E70A00FF24002316E7AD
:10631000002C15D1002B57D1FF28E6D14B467BE747
:10632000002C20D1002B57D04946002953D04B4494
:106330005A0168D50724364A1C4001251340EAE675
:10634000FF28EBD08022D204764213431B2E53DC6D
:106350002025AD1B1A00AB40F2405C1EA341134345
:106360004B44050021E7002BD8D04946002900D135
:1063700052E78021C9030F4200D14DE76046084231
:1063800000D049E74B4647E74846FF25002800D1A3
:106390004FE78022D203174204D06046104201D159
:1063A0004B46884601224146FF250A4041E74846C0
:1063B00000281FD01A1A500120D54A460724D31AA4
:1063C0001C4088460025A6E6741CC9D0F643FF2869
:1063D000BCD14B4620E799464B460025DB082BE70E
:1063E000012340E700220023A9E680230022DB03EB
:1063F000FF24A4E600251CE70123B1E7002AF1D021
:1064000013000025FCE60025FAE6C046FFFFFF7DED
:10641000FFFFFFFB41024200C30F490A120E00209A
:106420007E2A0DD99D2A0CD8802000040143952A8C
:106430000ADC9620821AD1404842002B00D1080085
:106440007047034A9818FBE7963A9140F4E7C04634
:10645000FFFFFF7F70B500283DD0C317C5185D4012
:10646000C40F280001F0F6FD9E22121A962A07DCBE
:10647000D2B2082833DD083885406802400A23E09C
:10648000992A0BDD052329001B1AD94003001B3371
:106490009D402B005D1EAB4119430D00052801DD19
:1064A000431F9D402B000F490B406E0709D00F265C
:1064B0003540042D05D004335D0102D59F220B40E9
:1064C000121A9B01580AD2B24002D205400AE407D0
:1064D0001043204370BD002400220020F4E768022E
:1064E000400AF1E7FFFFFFFBF0B54F464646D646B0
:1064F0000C000903C0B5490A470F5E0039431F036A
:10650000DB0F9C4665007B0A570F1F436D0DE40FA0
:10651000760DA146C000B846D200AB1B64457BD0C7
:10652000002B5FDD002E00D0A4E03E00164300D11A
:1065300012E15E1E002E00D09EE1871A4346B8424B
:1065400080410125C91A4042091A0B0200D431E1E9
:1065500049024E0A002E00D16EE1300001F07AFDB2
:106560000300083B1F2B00DD61E120223900D21A15
:106570009E40D1409F400E439D4200DD51E15D1B96
:106580006B1C1F2B00DD7CE12021C91A3D0030006F
:106590008F408840DD40791E8F413100072228431B
:1065A000D940002507433A40002A09D00F233B4039
:1065B000042B05D03B1DBB42BF417F42C9191F00C0
:1065C0000B0200D426E26A1CC64B55056D0D9A429B
:1065D00000D106E1C44AFF080A40530752023B4378
:1065E000120B8EE0002B00D0B8E06B1C5B055B0D3E
:1065F000012B00DC30E1871A4346B842B641CB1A82
:1066000076429E1B330200D54CE13B003343A1D1BF
:1066100000220024002570E0002B00DCE5E0002EC5
:1066200000D183E0AF4EB54260D0802636043743B8
:10663000B846382B00DC3EE1434613431F007A1E68
:1066400097413F1887428041404209180B0200D40D
:10665000B0E0A44B01359D4200D1C3E0A24A7B08C3
:106660000A4001210F401F435108D30707221F434F
:106670003A4099E79B4EB54238D0802636043743DE
:10668000B846382B00DDDCE01F2B00DC30E11E00BB
:106690004746203EF740BC46202B04D04026F31A44
:1066A00046469E403243170063467A1E97411F4379
:1066B000CCE0002B00D104E24346134300D159E162
:1066C0004B07C00818438023C9081B03194208D090
:1066D0004546ED081D4204D14346D00859070843FA
:1066E0002900420FC9007F4D1143C0004B07CA0863
:1066F0007C49C00803438D4268D012036D05120B1C
:106700006D0D002112031800130B0A0D12051A4318
:10671000764B2D0513402B435B00E4075B082343B6
:1067200019001CBC90469946A246F0BD3E00164397
:1067300012D05E1E002E00D000E1871887428041F3
:1067400041444042091801250B0233D5022585E753
:1067500064463300414610001D00C7E7002D00D0FD
:10676000DAE00C000443F3D05C1C00D19FE15D4CE7
:10677000A64200D12FE1DB43382B00DD66E11F2B61
:1067800000DD83E120240500E41A0F00DD40D9403C
:10679000A0404346A7405B1A441EA04198462F43A1
:1067A0003843171ABA42924143465242991A6446F4
:1067B0003500CAE607223A40002A00D0F6E64B0729
:1067C000CA084849FF083B438D4296D1190011433E
:1067D00000D19EE1802109030A431203120B414DAF
:1067E0008FE71500002200238BE7002B00D0C7E0C5
:1067F0006B1C5F057F0D012F00DCF1E0394DAB42D2
:1068000000D1B9E085180A008542894142444942D5
:1068100051180722CF076D082F4349083A401D0041
:10682000C2E607223049ED1A31403A40BCE63E004C
:106830002838864000279FE6380001F00BFC203006
:106840008EE6434613431F007A1E9741C71BB8428A
:1068500080414042091A78E60E003B00064313438C
:10686000002D61D1002E00D0F4E0002B00D11BE1FF
:1068700064463900100039E71A4FBB427AD0330022
:10688000FFE630001F3DE840202B03D04021CB1A0B
:106890009E4037437B1E9F41072207433A40002119
:1068A000002589E7171A4346BA42B641591A76427B
:1068B0008E1B64464EE61F2B00DDADE020264746CA
:1068C000F61AB740B9461700B246DF404E463E437F
:1068D00037005646B240561EB24117434246DA4090
:1068E0008918AEE6FF070000FFFF7FFFFFFF0F8064
:1068F00020264746F61AB740B9461700B246DF4091
:106900004E463E4337005646B240561EB2411743EC
:106910004246DA40891A99E77F4CA6425BD0802430
:1069200024045B42214327E7002E0CD1002B00D129
:10693000CBE0644639001000774DD7E6764FBB4276
:1069400018D0330075E6002B14D04B07C00818434D
:106950008023C9081B03194207D0FC081C4204D13C
:106960007907D0080843E14621004C46420FC90090
:106970001143C000684DB9E61D0000220023C0E6A7
:10698000002D5BD10D00054300D1E2E65D1C00D176
:10699000B0E0614DAE421FD0DB43382B71DC1F2BC2
:1069A00000DD96E020250F00ED1AAF40B946070044
:1069B000AA46DF404D463D432F005546A840D940EA
:1069C000451EA84188440743BF189742924151424F
:1069D000414435003AE6644635004146100085E6FC
:1069E0000B000343002D00D063E6002BF5D0434697
:1069F000134300D17AE68718874280410722414439
:106A0000404209183A400B0200D4D5E6434B013509
:106A10001940C9E5380069E61E004746203EF740A8
:106A2000BC46202B04D04026F31A46469E403243F3
:106A3000170063467A1E97411F4302E6364DAE4269
:106A4000CAD080252D045B422943A6E70843411E96
:106A50008841A6E6002B00D148E6871A4346B84293
:106A6000B641CB1A76429E1B33024BD5171A4346CA
:106A7000BA429241591A5242891A072264463A4050
:106A800092E501430F00791E8F419DE71C000F0026
:106A9000203CE740202B03D04024E31A99400843D0
:106AA000411E884138437CE60022002425E6171A5F
:106AB0004346BA429241591A5242891A64463500F5
:106AC00043E541461000144D10E6802200241203D5
:106AD00080E61D000F00203DEF40BC46202B03D078
:106AE0004025EB1A9940084307006346781E87410A
:106AF0001F4369E7871897429B4141445B42C9188D
:106B00003500A3E53B003343CED0072231003A40A5
:106B100052E600231A00F4E5FF070000FFFF7FFFA5
:106B2000F0B55746DE464E464546E0B5834607007B
:106B30000E03480085B092461C00360B400DCD0F69
:106B4000002800D19DE0954B984239D08023F60073
:106B50001B041E43924A7B0F33439946944603001D
:106B60006344009300230026FF00029323031B0BC2
:106B700098466300E40F52465B0D019400D1B3E0E8
:106B800086498B4200D19EE04246D1008022120409
:106B90000A435146490F11438B46814952468C4660
:106BA00000996344CB1A0021D20000932B0063406C
:106BB0009A460F2E00D905E17A4BB6009B599F46A5
:106BC0005B463343994600D0B8E0022308260027ED
:106BD00000900293CAE7CB463A0002990195019BC7
:106BE0009A46022927D0032900D180E2012944D006
:106BF0006D49009B8C4663441C00002C38DD530714
:106C000000D013E2D2085B46DB0109D55946674B39
:106C100019408B468021C9008C46009B63441C00B0
:106C2000634B9C4207DC5B4664055F075B021743CE
:106C30001B0B620D02E000230027584A00211B03B2
:106C40001C0B0B0D1B05234314055A4A3800134037
:106C50001C4353466400DB0764081C43210005B055
:106C60003CBC90469946A246AB46F0BD012252423A
:106C700001231B1B382B00DCADE100220023002781
:106C8000DCE75B46334399465ED0002E00D18AE1B3
:106C9000300001F0DFF903000B3B1C2B00DD7BE132
:106CA0001D22D31A5A460100DA4008398E401300DB
:106CB0005F46334399468F403F4B00261B1A009393
:106CC0000023029352E7414653460B433B499B4600
:106CD0008C46009B634400935B46002B3BD1022310
:106CE00000221E43022161E7434613439B4637D0EF
:106CF0004346002B00D162E1404601F0ABF90300AE
:106D00000B3B1C2B00DD53E102004146083A914049
:106D100088461D21CB1A5146D9400B0041460B43F2
:106D20009B46534693401A00009B25499C4660446D
:106D300003008C4663440093002137E70323B146E8
:106D400000900C26029311E70023009301330426E0
:106D5000002702930AE70323C3461E43032125E7C6
:106D600001331E430022012120E700239A4680239D
:106D700000271B03094A61E7802349461B03194288
:106D800000D1E2E05946194200D0DEE00B431B037C
:106D900017001B0BA246014A50E7C046FF07000040
:106DA00001FCFFFF38940000FF030000FFFFFFFE1F
:106DB000FE070000FFFF0F800DFCFFFF01F8FFFF43
:106DC000F3030000D94500D9CBE000D1C6E03C0078
:106DD00048460027009B013B00935B46160E1B02B2
:106DE0001E431302984633041B0C9946310C019143
:106DF000FEF722FB4A4642430B04210C05001943CF
:106E00008A4207D98919013D8E4203D88A4201D9A5
:106E1000851E8919881A0199FEF70EFB09048C4614
:106E20004A46210464464243090C030021438A4236
:106E300004D98919013B8E4200D8F1E02D041D438D
:106E4000AB464346891A4246280C12041D0C5B4689
:106E5000140C22001B041B0C5A4303946B43444341
:106E6000029568431B19150CEB189C4203D980242A
:106E70006402A44660441C0C15041B042D0C20184D
:106E80005D19814277D373D00C1AA24A7D1BAF42A1
:106E9000BF419446009B7F426344E01B1C00864236
:106EA00000D1DBE00199FEF7C7FA4A4642430B04E2
:106EB000290C070019438A4207D98919013F8E42DC
:106EC00003D88A4201D9871E8919881A0199FEF7C9
:106ED000B3FA09044A46894629044D464243090C3F
:106EE000030029438A4207D98919013B8E4203D8FE
:106EF0008A4201D9831E89193F04891A3A00039FE7
:106F00001A43380013041B0C584381460298150C91
:106F10006F43434345434846000C8446DB196344B2
:106F20009F4203D9802040028446654448461F0C96
:106F300000041B04000C7D191818A94200D284E03B
:106F400000D17FE001231A4357E680234A461B0302
:106F500013431B031B0BAA466F4A6FE6BA4200D9C4
:106F600035E74B46DC0758087B081C43FF0734E72E
:106F70000024AF4289D247444745A4415B4664425E
:106F8000A4196418013BA6421ED2A0426DD800D1BC
:106F9000B6E0241A9B4678E703005A46283B9A40FD
:106FA0000027914688E6584601F054F8203072E6F2
:106FB00003005246283B9A4093460022B4E65046CE
:106FC00001F048F820309AE6A642E2D1B845DCD973
:106FD000341A9B4659E71F2B65DC504C0099A44698
:106FE0005C46614408008C4011008240D940501E2C
:106FF00082410C4314435A46DA401300620709D019
:107000000F222240042A05D02200141D94428941F7
:1070100049425B181A0262D50122002300270DE6BF
:107020008A4200D80AE7831E891907E70F23134015
:10703000042B00D1E6E5171D9742924153429B4431
:10704000FA08E0E5002800D1D7E57118531EB142D7
:1070500027D3A94215D358D01A0073E7002B00DCC0
:1070600004E6012300229B44CDE502234744474523
:1070700089415B429C46494289190C19E344241A10
:1070800003E743465F0047459B41B8465B429E1974
:10709000023A8919A94200D054E7404500D051E78F
:1070A000ABE51A00F6E71F215F4649420C1BE7409B
:1070B000202B07D01A49009B8C46634418005B467E
:1070C00083401A43501E82413A430727002317404A
:1070D00009D00F21002311401400042995D122006A
:1070E0005F075B021B0BD20817430022A6E5802333
:1070F00059461B030B431B0317001B0B064A9DE558
:10710000BD42B2D89B460024BFE68045B9D31A00E1
:10711000C3E7C046FF030000FF0700001E04000095
:107120003E040000F0B54F464646D6468446C0B5FC
:107130008046194E18030F034D00000B5C00824679
:107140003F0B6D0DC90F9146640DDB0F0120B54259
:107150000AD0B44203D0A54201D157450CD01CBC83
:1071600090469946A246F0BD66463E43F7D1AC42F2
:10717000F5D154461443F2D10120C845EFD19942CC
:1071800007D0002DEBD163461F433800471EB8419E
:10719000E5E70020E3E7C046FF070000F0B54F46F3
:1071A0004646D6464D00C0B50E03C90F8A462C4947
:1071B0001F035C008046360B6D0D91463F0B640D3E
:1071C000DB0F8D421ED08C4216D0002D1ED13043D5
:1071D0008446002C01D13A4323D06246002A1AD0BB
:1071E0009A4529D0514602200139084001381CBC7B
:1071F00090469946A246F0BD39001143E5D00220E1
:107200004042F4E73043FAD1AC420FD0002C0FD10A
:107210003A43E7D00CE00122013B934318000130D0
:10722000E5E763460020002BE1D0DBE73A43E6D1F7
:107230009A45D7D1A542D5DCA54205DBBE42D1D8BF
:1072400008D00020BE42D2D25046012301389843D4
:107250000130CCE7C845C5D80020C845F4D3C6E7FF
:10726000FF070000F0B54F464646D6464D00C0B574
:107270000E03C90F8A462E491F035C008046360B59
:107280006D0D91463F0B640DDB0F8D4218D08C4283
:1072900011D0002D18D130438446002C1ED13A4322
:1072A0001CD163460020002B30D05146022001390A
:1072B000084001382AE039001143EAD0022025E0D5
:1072C0003043FBD1AC4226D0002C26D13A4324D106
:1072D0005146022001390840013817E06246002A71
:1072E0000FD09A45E1D1A54205DBBE42DDD819D0C9
:1072F0000020BE420AD25046012301389843013093
:1073000004E00122013B9343180001301CBC90466D
:107310009946A246F0BD3A43D0D19A45C5D1A5427F
:10732000C3DCE0E7C845C0D80020C845E3D3EDE79B
:10733000FF070000F0B55746DE464E464546E0B52D
:10734000834606000F03480087B092461D003F0B9E
:10735000400DCC0F002800D16FE0DE4B984238D0B2
:107360008023FF001B041F43730F3B430193DA4B41
:107370000027994600239B46F60081442B036900B1
:107380001B0B52469846490DED0F002900D185E0B0
:10739000D04B994200D173E04346DA0080231B04AE
:1073A00013435246CC48520F8446134352460020A2
:1073B0006144D20089442100694000918C4601213A
:1073C00049448A460F2F00D990E0C449BF00CF59E5
:1073D000BF465B463B43019300D06AE10223082786
:1073E000002681469B46C9E732005846019B61460C
:1073F0000091022800D175E0032800D1FEE10128A8
:1074000000D02CE100230027002600253F032A0D91
:107410003F0BB34812053A4302401B051343009A41
:107420005B00D1075B080B433000190007B03CBC80
:1074300090469946A246AB46F0BD5B463B4301935E
:1074400000D12FE1002F00D1A5E1380000F002FEAD
:1074500003000B3B1C2B00DD96E11D22D31A5A467C
:107460000100DA405E4608398F4013008E403B43EE
:1074700001939C4B00271B1A994600239B467DE7EE
:10748000414653460B4393498C46E144002B00D0C0
:107490001AE102220220174300228CE7134300D195
:1074A0000DE14346002B00D181E1404600F0D2FDC2
:1074B00002000B3A1C2A00DD72E101004346083944
:1074C0008B4098461D239A1A5346D3401A004346D0
:1074D000134352468A404946081A824989468144E4
:1074E000002068E77B4B002700268EE7140C12046F
:1074F000120C1100370C3604350C794328008C46E9
:107500002E0060436044834656432100300C804681
:107510005846794340440291844506D988468021E3
:1075200049028C46E044414602913604010C360C77
:1075300000048B4681191E0C1B041B0C03911900BF
:1075400079438C46280075436544A8465843050C8A
:1075500045447743A94203D9802149028C466744B8
:10756000290C8C4639000004000C2D042D186144B0
:10757000AB4405915946049101990F043F0C080C46
:10758000390051434243904602008C46090C8B4619
:1075900062437C4344445C44A04503D980214902B2
:1075A00088464244210C884661460904090C8C46F1
:1075B00039005943434370437E430F0CF6182404AB
:1075C000BE19644442448C46B34203D980235B0213
:1075D00098464044029B61469846049B37044344C6
:1075E0009B46AB45AD416B420D0405992D0C8C4675
:1075F0007F196744FD18A8465D462D19A542A44190
:1076000093466442A446C344DC448F42BF4198453C
:107610009B4193459241A445A4415B427F421F4355
:10762000360C52426442BF192243BF1862463818D2
:107630004302D20D039913436A020A43501E82414A
:107640006146ED0D2A434E023243D90100D4B3E026
:107650000126500832400243DE0732435B08224CC9
:107660005444002C62DD510709D00F20104004283B
:1076700005D0101D9042924152429B180200D90140
:1076800004D580241948E400034054441848844237
:1076900000DD27E75E075B02D2081F0B6305164378
:1076A0005B0DB2E6002399460133042700269B4672
:1076B00064E60323019781460C279B465EE6012280
:1076C00001201743002276E6032303201F4343468D
:1076D00071E6C046FF07000001FCFFFF7894000040
:1076E000FFFF0F800DFCFFFFFF030000FFFFFFFE09
:1076F000FE0700000023802700933F030026434B32
:1077000083E6019B3200A446584670E6AC466EE61E
:10771000802701993F0339422DD03B422BD11F4393
:107720003F033F0B00951600384B6EE601252D1BDD
:10773000382D00DD66E61F2D40DC35481C00504426
:10774000160082408440EE40501E82413443144370
:10775000EB40620709D00F222240042A05D0220004
:10776000141D9442804140421B181A023ED5012349
:107770000027002649E68027019B3F031F433F0364
:107780003F0B0094214B40E603005A46283B9A40A9
:10779000002601926DE6584600F05CFC203057E66A
:1077A00003005246283B9A401300002293E65046BD
:1077B00000F050FC20307BE6CA4650E71F201E0038
:1077C0004042041BE640202D03D0124C5444A340F9
:1077D0001A43501E8241324307260027164009D023
:1077E0000F200023104014000428B9D122005E07A6
:1077F0005B021F0BD2081643002306E680273F03D7
:107800001F433F033F0B1600004BFEE5FF07000040
:107810001E0400003E040000F8B557464E4645469B
:10782000DE460C000903E0B5490A460F5F0031430C
:107830001E03DB0F760A9B46530F3343C84E650089
:10784000C000E40FD2006D0DA24681467F0D9C461C
:107850009046B74200D1B9E05B46012673409B4693
:10786000EE1BA34500D183E0002E63DD002F00D086
:10787000B1E06346134300D123E1731E002B00D017
:10788000BAE1861A6346B04280410125C91A4042D6
:10789000091A0B0200D447E149024B0A98464346B5
:1078A000002B00D189E1404600F0D4FB0300083BE7
:1078B0001F2B00DD7CE120223000D21A4146D0404F
:1078C000994002009E400A439D4200DD6AE15D1B33
:1078D0006B1C1F2B00DD94E1202110003500C91A1C
:1078E0008E40DA408840DD40711E8E411100072233
:1078F0002843002506433240002A09D00F23334095
:10790000042B05D0331DB342B641764289191E00BF
:107910000B0200D43DE26A1C914B55056D0D9A4255
:1079200000D119E18F4AF6080A405707520237433F
:10793000120B9BE0002E00D0C5E06E1C7605760D84
:10794000012E00DC48E16746861ACB1BB042BF41DE
:107950007F42B8461F004346FF1A3B00B8461B0251
:1079600000D55FE137439AD100220024002579E059
:10797000002E00DCFAE0002F00D18DE0784B9D4214
:1079800067D0802367461B041F43BC46382E00DCAB
:1079900052E1634613435A1E93411E1886428041AA
:1079A000404209180B0200D4BEE06D4B01359D42E8
:1079B00000D1D2E06B4A73080A4001210E401E43F9
:1079C0005108D30707221E43324095E71E00164395
:1079D00000D045E740E7624B9D423AD0802367469E
:1079E0001B041F43BC46382E00DDEBE01F2E00DCDD
:1079F0003AE133006746203BDF403B00202E05D0B4
:107A00004027BF1B6646BE40324390464646721E24
:107A100096413343DAE0002B00D114E2634613436E
:107A200000D168E180234E07C008C9081B03064344
:107A3000194208D06046C008184204D163460100CC
:107A4000D2085E071643F3009946C900720F444DF1
:107A500011434B46DE08424B4F073743CA089D424D
:107A600000D16EE012036D05120B6D0D00211203A3
:107A7000130B0A0D12051A433B4B2D0513402B43E4
:107A80005B00E4075B082343380019003CBC9046C8
:107A90009946A246AB46F8BD6346134311D0731E08
:107AA000002B00D007E186188642804161444042A5
:107AB000091801250B0237D502257BE73E006146F8
:107AC00091463500C5E75C46002D00D0E1E00B0093
:107AD0000343F3D0731C00D1ACE1214B9F4200D192
